{
  "_format": "hh-sol-artifact-1",
  "contractName": "ChainList",
  "sourceName": "contracts/ChainList.sol",
  "abi": [
    {
      "inputs": [],
      "stateMutability": "nonpayable",
      "type": "constructor"
    },
    {
      "anonymous": false,
      "inputs": [
        {
          "indexed": true,
          "internalType": "uint256",
          "name": "_id",
          "type": "uint256"
        },
        {
          "indexed": true,
          "internalType": "address",
          "name": "_seller",
          "type": "address"
        },
        {
          "indexed": true,
          "internalType": "address",
          "name": "_buyer",
          "type": "address"
        },
        {
          "indexed": false,
          "internalType": "string",
          "name": "_name",
          "type": "string"
        },
        {
          "indexed": false,
          "internalType": "uint256",
          "name": "_price",
          "type": "uint256"
        }
      ],
      "name": "BuyArticleEvent",
      "type": "event"
    },
    {
      "anonymous": false,
      "inputs": [
        {
          "indexed": true,
          "internalType": "uint256",
          "name": "_id",
          "type": "uint256"
        },
        {
          "indexed": true,
          "internalType": "address",
          "name": "_seller",
          "type": "address"
        },
        {
          "indexed": false,
          "internalType": "string",
          "name": "_name",
          "type": "string"
        },
        {
          "indexed": false,
          "internalType": "uint256",
          "name": "_price",
          "type": "uint256"
        }
      ],
      "name": "SellArticleEvent",
      "type": "event"
    },
    {
      "stateMutability": "nonpayable",
      "type": "fallback"
    },
    {
      "inputs": [
        {
          "internalType": "bool",
          "name": "_active",
          "type": "bool"
        }
      ],
      "name": "activate",
      "outputs": [],
      "stateMutability": "nonpayable",
      "type": "function"
    },
    {
      "inputs": [
        {
          "internalType": "uint256",
          "name": "",
          "type": "uint256"
        }
      ],
      "name": "articles",
      "outputs": [
        {
          "internalType": "uint256",
          "name": "id",
          "type": "uint256"
        },
        {
          "internalType": "address payable",
          "name": "owner",
          "type": "address"
        },
        {
          "internalType": "string",
          "name": "name",
          "type": "string"
        },
        {
          "internalType": "string",
          "name": "description",
          "type": "string"
        },
        {
          "internalType": "uint256",
          "name": "price",
          "type": "uint256"
        }
      ],
      "stateMutability": "view",
      "type": "function"
    },
    {
      "inputs": [
        {
          "internalType": "uint256",
          "name": "_id",
          "type": "uint256"
        }
      ],
      "name": "buyArticle",
      "outputs": [],
      "stateMutability": "payable",
      "type": "function"
    },
    {
      "inputs": [],
      "name": "getMarketplace",
      "outputs": [
        {
          "components": [
            {
              "internalType": "uint256",
              "name": "id",
              "type": "uint256"
            },
            {
              "internalType": "address payable",
              "name": "owner",
              "type": "address"
            },
            {
              "internalType": "string",
              "name": "name",
              "type": "string"
            },
            {
              "internalType": "string",
              "name": "description",
              "type": "string"
            },
            {
              "internalType": "uint256",
              "name": "price",
              "type": "uint256"
            }
          ],
          "internalType": "struct ChainList.Article[]",
          "name": "",
          "type": "tuple[]"
        }
      ],
      "stateMutability": "view",
      "type": "function"
    },
    {
      "inputs": [],
      "name": "getMyArticles",
      "outputs": [
        {
          "components": [
            {
              "internalType": "uint256",
              "name": "id",
              "type": "uint256"
            },
            {
              "internalType": "address payable",
              "name": "owner",
              "type": "address"
            },
            {
              "internalType": "string",
              "name": "name",
              "type": "string"
            },
            {
              "internalType": "string",
              "name": "description",
              "type": "string"
            },
            {
              "internalType": "uint256",
              "name": "price",
              "type": "uint256"
            }
          ],
          "internalType": "struct ChainList.Article[]",
          "name": "",
          "type": "tuple[]"
        }
      ],
      "stateMutability": "view",
      "type": "function"
    },
    {
      "inputs": [],
      "name": "getNumberOfArticles",
      "outputs": [
        {
          "internalType": "uint256",
          "name": "",
          "type": "uint256"
        }
      ],
      "stateMutability": "view",
      "type": "function"
    },
    {
      "inputs": [],
      "name": "isActive",
      "outputs": [
        {
          "internalType": "bool",
          "name": "",
          "type": "bool"
        }
      ],
      "stateMutability": "view",
      "type": "function"
    },
    {
      "inputs": [],
      "name": "isOwner",
      "outputs": [
        {
          "internalType": "bool",
          "name": "",
          "type": "bool"
        }
      ],
      "stateMutability": "view",
      "type": "function"
    },
    {
      "inputs": [
        {
          "internalType": "string",
          "name": "_name",
          "type": "string"
        },
        {
          "internalType": "string",
          "name": "_description",
          "type": "string"
        },
        {
          "internalType": "uint256",
          "name": "_price",
          "type": "uint256"
        }
      ],
      "name": "sellArticle",
      "outputs": [],
      "stateMutability": "nonpayable",
      "type": "function"
    }
  ],
  "bytecode": "0x608060405234801561001057600080fd5b50336000806101000a81548173ffffffffffffffffffffffffffffffffffffffff021916908373ffffffffffffffffffffffffffffffffffffffff1602179055506001600060146101000a81548160ff021916908315150217905550611e928061007b6000396000f3fe60806040526004361061008a5760003560e01c80638f32d59b116100595780638f32d59b1461013d578063b5df05fc14610168578063ce5e84a314610193578063d2609515146101bc578063edcfafe6146101e55761008b565b80630d21bcd5146100a05780631cc4baa8146100cb57806322f3e2d4146100e757806389da85d3146101125761008b565b5b34801561009757600080fd5b50600180819055005b3480156100ac57600080fd5b506100b5610226565b6040516100c29190611286565b60405180910390f35b6100e560048036038101906100e091906112e8565b61041b565b005b3480156100f357600080fd5b506100fc61076e565b6040516101099190611330565b60405180910390f35b34801561011e57600080fd5b50610127610784565b604051610134919061135a565b60405180910390f35b34801561014957600080fd5b5061015261078e565b60405161015f9190611330565b60405180910390f35b34801561017457600080fd5b5061017d6107e5565b60405161018a9190611286565b60405180910390f35b34801561019f57600080fd5b506101ba60048036038101906101b591906113a1565b610969565b005b3480156101c857600080fd5b506101e360048036038101906101de9190611503565b610a14565b005b3480156101f157600080fd5b5061020c600480360381019061020791906112e8565b610c45565b60405161021d9594939291906115e7565b60405180910390f35b6060600060149054906101000a900460ff16610277576040517f08c379a000000000000000000000000000000000000000000000000000000000815260040161026e90611694565b60405180910390fd5b600060035467ffffffffffffffff811115610295576102946113d8565b5b6040519080825280602002602001820160405280156102c35781602001602082028036833780820191505090505b509050600080600190505b6003548111610409573373ffffffffffffffffffffffffffffffffffffffff166002600083815260200190815260200160002060010160009054906101000a900473ffffffffffffffffffffffffffffffffffffffff1673ffffffffffffffffffffffffffffffffffffffff16141580156103ac5750600073ffffffffffffffffffffffffffffffffffffffff166002600083815260200190815260200160002060010160009054906101000a900473ffffffffffffffffffffffffffffffffffffffff1673ffffffffffffffffffffffffffffffffffffffff1614155b156103f65760026000828152602001908152602001600020600001548383815181106103db576103da6116b4565b5b60200260200101818152505081806103f290611712565b9250505b808061040190611712565b9150506102ce565b506104148282610dab565b9250505090565b600060149054906101000a900460ff1661046a576040517f08c379a000000000000000000000000000000000000000000000000000000000815260040161046190611694565b60405180910390fd5b6000600354116104af576040517f08c379a00000000000000000000000000000000000000000000000000000000081526004016104a6906117a6565b60405180910390fd5b6000811180156104c157506003548111155b610500576040517f08c379a00000000000000000000000000000000000000000000000000000000081526004016104f790611812565b60405180910390fd5b60006002600083815260200190815260200160002090508060010160009054906101000a900473ffffffffffffffffffffffffffffffffffffffff1673ffffffffffffffffffffffffffffffffffffffff163373ffffffffffffffffffffffffffffffffffffffff16036105a9576040517f08c379a00000000000000000000000000000000000000000000000000000000081526004016105a0906118a4565b60405180910390fd5b806004015434146105ef576040517f08c379a00000000000000000000000000000000000000000000000000000000081526004016105e690611910565b60405180910390fd5b60008160010160009054906101000a900473ffffffffffffffffffffffffffffffffffffffff1690508073ffffffffffffffffffffffffffffffffffffffff166108fc349081150290604051600060405180830381858888f1935050505015801561065e573d6000803e3d6000fd5b50338260010160006101000a81548173ffffffffffffffffffffffffffffffffffffffff021916908373ffffffffffffffffffffffffffffffffffffffff1602179055503373ffffffffffffffffffffffffffffffffffffffff168173ffffffffffffffffffffffffffffffffffffffff16847f933d1098c688ba47d0f2b5d4d9eb8616d0cb2a68998c45ea3f35df12fb9d6def856002018660040154604051610709929190611a29565b60405180910390a43373ffffffffffffffffffffffffffffffffffffffff16837f435e70f0dc3155a3a315273a7ef18006eabafe620cee176dc37c4e015142df96846002018560040154604051610761929190611a29565b60405180910390a3505050565b60008060149054906101000a900460ff16905090565b6000600354905090565b60008060009054906101000a900473ffffffffffffffffffffffffffffffffffffffff1673ffffffffffffffffffffffffffffffffffffffff163373ffffffffffffffffffffffffffffffffffffffff1614905090565b6060600060149054906101000a900460ff16610836576040517f08c379a000000000000000000000000000000000000000000000000000000000815260040161082d90611694565b60405180910390fd5b600060035467ffffffffffffffff811115610854576108536113d8565b5b6040519080825280602002602001820160405280156108825781602001602082028036833780820191505090505b509050600080600190505b6003548111610957573373ffffffffffffffffffffffffffffffffffffffff166002600083815260200190815260200160002060010160009054906101000a900473ffffffffffffffffffffffffffffffffffffffff1673ffffffffffffffffffffffffffffffffffffffff1603610944576002600082815260200190815260200160002060000154838381518110610929576109286116b4565b5b602002602001018181525050818061094090611712565b9250505b808061094f90611712565b91505061088d565b506109628282610dab565b9250505090565b60008054906101000a900473ffffffffffffffffffffffffffffffffffffffff1673ffffffffffffffffffffffffffffffffffffffff163373ffffffffffffffffffffffffffffffffffffffff16146109f7576040517f08c379a00000000000000000000000000000000000000000000000000000000081526004016109ee90611acb565b60405180910390fd5b80600060146101000a81548160ff02191690831515021790555050565b600060149054906101000a900460ff16610a63576040517f08c379a0000000000000000000000000000000000000000000000000000000008152600401610a5a90611694565b60405180910390fd5b60008390506000815111610aac576040517f08c379a0000000000000000000000000000000000000000000000000000000008152600401610aa390611b37565b60405180910390fd5b60008390506000815111610af5576040517f08c379a0000000000000000000000000000000000000000000000000000000008152600401610aec90611ba3565b60405180910390fd5b60036000815480929190610b0890611712565b91905055506040518060a0016040528060035481526020013373ffffffffffffffffffffffffffffffffffffffff168152602001868152602001858152602001848152506002600060035481526020019081526020016000206000820151816000015560208201518160010160006101000a81548173ffffffffffffffffffffffffffffffffffffffff021916908373ffffffffffffffffffffffffffffffffffffffff1602179055506040820151816002019081610bc79190611d5a565b506060820151816003019081610bdd9190611d5a565b50608082015181600401559050503373ffffffffffffffffffffffffffffffffffffffff166003547f435e70f0dc3155a3a315273a7ef18006eabafe620cee176dc37c4e015142df968786604051610c36929190611e2c565b60405180910390a35050505050565b60026020528060005260406000206000915090508060000154908060010160009054906101000a900473ffffffffffffffffffffffffffffffffffffffff1690806002018054610c949061195f565b80601f0160208091040260200160405190810160405280929190818152602001828054610cc09061195f565b8015610d0d5780601f10610ce257610100808354040283529160200191610d0d565b820191906000526020600020905b815481529060010190602001808311610cf057829003601f168201915b505050505090806003018054610d229061195f565b80601f0160208091040260200160405190810160405280929190818152602001828054610d4e9061195f565b8015610d9b5780601f10610d7057610100808354040283529160200191610d9b565b820191906000526020600020905b815481529060010190602001808311610d7e57829003601f168201915b5050505050908060040154905085565b606060008267ffffffffffffffff811115610dc957610dc86113d8565b5b604051908082528060200260200182016040528015610e0257816020015b610def611018565b815260200190600190039081610de75790505b50905060005b8381101561100d57600060026000878481518110610e2957610e286116b4565b5b602002602001015181526020019081526020016000206040518060a0016040529081600082015481526020016001820160009054906101000a900473ffffffffffffffffffffffffffffffffffffffff1673ffffffffffffffffffffffffffffffffffffffff1673ffffffffffffffffffffffffffffffffffffffff168152602001600282018054610eba9061195f565b80601f0160208091040260200160405190810160405280929190818152602001828054610ee69061195f565b8015610f335780601f10610f0857610100808354040283529160200191610f33565b820191906000526020600020905b815481529060010190602001808311610f1657829003601f168201915b50505050508152602001600382018054610f4c9061195f565b80601f0160208091040260200160405190810160405280929190818152602001828054610f789061195f565b8015610fc55780601f10610f9a57610100808354040283529160200191610fc5565b820191906000526020600020905b815481529060010190602001808311610fa857829003601f168201915b50505050508152602001600482015481525050905080838381518110610fee57610fed6116b4565b5b602002602001018190525050808061100590611712565b915050610e08565b508091505092915050565b6040518060a0016040528060008152602001600073ffffffffffffffffffffffffffffffffffffffff1681526020016060815260200160608152602001600081525090565b600081519050919050565b600082825260208201905092915050565b6000819050602082019050919050565b6000819050919050565b61109c81611089565b82525050565b600073ffffffffffffffffffffffffffffffffffffffff82169050919050565b60006110cd826110a2565b9050919050565b6110dd816110c2565b82525050565b600081519050919050565b600082825260208201905092915050565b60005b8381101561111d578082015181840152602081019050611102565b60008484015250505050565b6000601f19601f8301169050919050565b6000611145826110e3565b61114f81856110ee565b935061115f8185602086016110ff565b61116881611129565b840191505092915050565b600060a08301600083015161118b6000860182611093565b50602083015161119e60208601826110d4565b50604083015184820360408601526111b6828261113a565b915050606083015184820360608601526111d0828261113a565b91505060808301516111e56080860182611093565b508091505092915050565b60006111fc8383611173565b905092915050565b6000602082019050919050565b600061121c8261105d565b6112268185611068565b93508360208202850161123885611079565b8060005b85811015611274578484038952815161125585826111f0565b945061126083611204565b925060208a0199505060018101905061123c565b50829750879550505050505092915050565b600060208201905081810360008301526112a08184611211565b905092915050565b6000604051905090565b600080fd5b600080fd5b6112c581611089565b81146112d057600080fd5b50565b6000813590506112e2816112bc565b92915050565b6000602082840312156112fe576112fd6112b2565b5b600061130c848285016112d3565b91505092915050565b60008115159050919050565b61132a81611315565b82525050565b60006020820190506113456000830184611321565b92915050565b61135481611089565b82525050565b600060208201905061136f600083018461134b565b92915050565b61137e81611315565b811461138957600080fd5b50565b60008135905061139b81611375565b92915050565b6000602082840312156113b7576113b66112b2565b5b60006113c58482850161138c565b91505092915050565b600080fd5b600080fd5b7f4e487b7100000000000000000000000000000000000000000000000000000000600052604160045260246000fd5b61141082611129565b810181811067ffffffffffffffff8211171561142f5761142e6113d8565b5b80604052505050565b60006114426112a8565b905061144e8282611407565b919050565b600067ffffffffffffffff82111561146e5761146d6113d8565b5b61147782611129565b9050602081019050919050565b82818337600083830152505050565b60006114a66114a184611453565b611438565b9050828152602081018484840111156114c2576114c16113d3565b5b6114cd848285611484565b509392505050565b600082601f8301126114ea576114e96113ce565b5b81356114fa848260208601611493565b91505092915050565b60008060006060848603121561151c5761151b6112b2565b5b600084013567ffffffffffffffff81111561153a576115396112b7565b5b611546868287016114d5565b935050602084013567ffffffffffffffff811115611567576115666112b7565b5b611573868287016114d5565b9250506040611584868287016112d3565b9150509250925092565b611597816110c2565b82525050565b600082825260208201905092915050565b60006115b9826110e3565b6115c3818561159d565b93506115d38185602086016110ff565b6115dc81611129565b840191505092915050565b600060a0820190506115fc600083018861134b565b611609602083018761158e565b818103604083015261161b81866115ae565b9050818103606083015261162f81856115ae565b905061163e608083018461134b565b9695505050505050565b7f4e6f742061637469766500000000000000000000000000000000000000000000600082015250565b600061167e600a8361159d565b915061168982611648565b602082019050919050565b600060208201905081810360008301526116ad81611671565b9050919050565b7f4e487b7100000000000000000000000000000000000000000000000000000000600052603260045260246000fd5b7f4e487b7100000000000000000000000000000000000000000000000000000000600052601160045260246000fd5b600061171d82611089565b91507fffffffffffffffffffffffffffffffffffffffffffffffffffffffffffffffff820361174f5761174e6116e3565b5b600182019050919050565b7f4e6f2061727469636c657320746f206275790000000000000000000000000000600082015250565b600061179060128361159d565b915061179b8261175a565b602082019050919050565b600060208201905081810360008301526117bf81611783565b9050919050565b7f41727469636c6520646f65736e27742065786973740000000000000000000000600082015250565b60006117fc60158361159d565b9150611807826117c6565b602082019050919050565b6000602082019050818103600083015261182b816117ef565b9050919050565b7f53656c6c65722063616e6e6f742062757920686973206f776e2061727469636c60008201527f6500000000000000000000000000000000000000000000000000000000000000602082015250565b600061188e60218361159d565b915061189982611832565b604082019050919050565b600060208201905081810360008301526118bd81611881565b9050919050565b7f507269636520646f65736e2774206d6174636800000000000000000000000000600082015250565b60006118fa60138361159d565b9150611905826118c4565b602082019050919050565b60006020820190508181036000830152611929816118ed565b9050919050565b7f4e487b7100000000000000000000000000000000000000000000000000000000600052602260045260246000fd5b6000600282049050600182168061197757607f821691505b60208210810361198a57611989611930565b5b50919050565b60008190508160005260206000209050919050565b600081546119b28161195f565b6119bc818661159d565b945060018216600081146119d757600181146119ed57611a20565b60ff198316865281151560200286019350611a20565b6119f685611990565b60005b83811015611a18578154818901526001820191506020810190506119f9565b808801955050505b50505092915050565b60006040820190508181036000830152611a4381856119a5565b9050611a52602083018461134b565b9392505050565b7f4f6e6c7920616c6c6f77656420746f2074686520636f6e74726163742773206f60008201527f776e657200000000000000000000000000000000000000000000000000000000602082015250565b6000611ab560248361159d565b9150611ac082611a59565b604082019050919050565b60006020820190508181036000830152611ae481611aa8565b9050919050565b7f41206e616d652069732072657175697265640000000000000000000000000000600082015250565b6000611b2160128361159d565b9150611b2c82611aeb565b602082019050919050565b60006020820190508181036000830152611b5081611b14565b9050919050565b7f41206465736372697074696f6e20697320726571756972656400000000000000600082015250565b6000611b8d60198361159d565b9150611b9882611b57565b602082019050919050565b60006020820190508181036000830152611bbc81611b80565b9050919050565b60006020601f8301049050919050565b600082821b905092915050565b600060088302611c107fffffffffffffffffffffffffffffffffffffffffffffffffffffffffffffffff82611bd3565b611c1a8683611bd3565b95508019841693508086168417925050509392505050565b6000819050919050565b6000611c57611c52611c4d84611089565b611c32565b611089565b9050919050565b6000819050919050565b611c7183611c3c565b611c85611c7d82611c5e565b848454611be0565b825550505050565b600090565b611c9a611c8d565b611ca5818484611c68565b505050565b5b81811015611cc957611cbe600082611c92565b600181019050611cab565b5050565b601f821115611d0e57611cdf81611990565b611ce884611bc3565b81016020851015611cf7578190505b611d0b611d0385611bc3565b830182611caa565b50505b505050565b600082821c905092915050565b6000611d3160001984600802611d13565b1980831691505092915050565b6000611d4a8383611d20565b9150826002028217905092915050565b611d63826110e3565b67ffffffffffffffff811115611d7c57611d7b6113d8565b5b611d86825461195f565b611d91828285611ccd565b600060209050601f831160018114611dc45760008415611db2578287015190505b611dbc8582611d3e565b865550611e24565b601f198416611dd286611990565b60005b82811015611dfa57848901518255600182019150602085019450602081019050611dd5565b86831015611e175784890151611e13601f891682611d20565b8355505b6001600288020188555050505b505050505050565b60006040820190508181036000830152611e4681856115ae565b9050611e55602083018461134b565b939250505056fea2646970667358221220ca3dc1c74a16c40af579d6bfd48e4d5c4c586480f9b75726987ba6de23f983af64736f6c63430008110033",
  "linkReferences": {},
  "deployedLinkReferences": {}
}