{
  "_format": "hh-sol-artifact-1",
  "contractName": "ChainList",
  "sourceName": "contracts/ChainList.sol",
  "abi": [
    {
      "stateMutability": "nonpayable",
      "type": "fallback"
    },
    {
      "inputs": [],
      "name": "getArticle",
      "outputs": [
        {
          "internalType": "address",
          "name": "_owner",
          "type": "address"
        },
        {
          "internalType": "string",
          "name": "_name",
          "type": "string"
        },
        {
          "internalType": "string",
          "name": "_description",
          "type": "string"
        },
        {
          "internalType": "uint256",
          "name": "_price",
          "type": "uint256"
        }
      ],
      "stateMutability": "view",
      "type": "function"
    },
    {
      "inputs": [
        {
          "internalType": "string",
          "name": "_name",
          "type": "string"
        },
        {
          "internalType": "string",
          "name": "_description",
          "type": "string"
        },
        {
          "internalType": "uint256",
          "name": "_price",
          "type": "uint256"
        }
      ],
      "name": "sellArticle",
      "outputs": [],
      "stateMutability": "nonpayable",
      "type": "function"
    }
  ],
  "bytecode": "0x608060405234801561001057600080fd5b506106d2806100206000396000f3fe608060405234801561001057600080fd5b506004361061003a5760003560e01c8063c37218a614610045578063d2609515146100665761003b565b5b6001600481905550005b61004d610082565b60405161005d94939291906103e8565b60405180910390f35b610080600480360381019061007b91906105b0565b6101d8565b005b600060608060008060009054906101000a900473ffffffffffffffffffffffffffffffffffffffff16600160026003548280546100be9061066a565b80601f01602080910402602001604051908101604052809291908181526020018280546100ea9061066a565b80156101375780601f1061010c57610100808354040283529160200191610137565b820191906000526020600020905b81548152906001019060200180831161011a57829003601f168201915b5050505050925081805461014a9061066a565b80601f01602080910402602001604051908101604052809291908181526020018280546101769061066a565b80156101c35780601f10610198576101008083540402835291602001916101c3565b820191906000526020600020905b8154815290600101906020018083116101a657829003601f168201915b50505050509150935093509350935090919293565b336000806101000a81548173ffffffffffffffffffffffffffffffffffffffff021916908373ffffffffffffffffffffffffffffffffffffffff160217905550826001908051906020019061022e929190610252565b508160029080519060200190610245929190610252565b5080600381905550505050565b82805461025e9061066a565b90600052602060002090601f01602090048101928261028057600085556102c7565b82601f1061029957805160ff19168380011785556102c7565b828001600101855582156102c7579182015b828111156102c65782518255916020019190600101906102ab565b5b5090506102d491906102d8565b5090565b5b808211156102f15760008160009055506001016102d9565b5090565b600073ffffffffffffffffffffffffffffffffffffffff82169050919050565b6000610320826102f5565b9050919050565b61033081610315565b82525050565b600081519050919050565b600082825260208201905092915050565b60005b83811015610370578082015181840152602081019050610355565b8381111561037f576000848401525b50505050565b6000601f19601f8301169050919050565b60006103a182610336565b6103ab8185610341565b93506103bb818560208601610352565b6103c481610385565b840191505092915050565b6000819050919050565b6103e2816103cf565b82525050565b60006080820190506103fd6000830187610327565b818103602083015261040f8186610396565b905081810360408301526104238185610396565b905061043260608301846103d9565b95945050505050565b6000604051905090565b600080fd5b600080fd5b600080fd5b600080fd5b7f4e487b7100000000000000000000000000000000000000000000000000000000600052604160045260246000fd5b61049182610385565b810181811067ffffffffffffffff821117156104b0576104af610459565b5b80604052505050565b60006104c361043b565b90506104cf8282610488565b919050565b600067ffffffffffffffff8211156104ef576104ee610459565b5b6104f882610385565b9050602081019050919050565b82818337600083830152505050565b6000610527610522846104d4565b6104b9565b90508281526020810184848401111561054357610542610454565b5b61054e848285610505565b509392505050565b600082601f83011261056b5761056a61044f565b5b813561057b848260208601610514565b91505092915050565b61058d816103cf565b811461059857600080fd5b50565b6000813590506105aa81610584565b92915050565b6000806000606084860312156105c9576105c8610445565b5b600084013567ffffffffffffffff8111156105e7576105e661044a565b5b6105f386828701610556565b935050602084013567ffffffffffffffff8111156106145761061361044a565b5b61062086828701610556565b92505060406106318682870161059b565b9150509250925092565b7f4e487b7100000000000000000000000000000000000000000000000000000000600052602260045260246000fd5b6000600282049050600182168061068257607f821691505b602082108114156106965761069561063b565b5b5091905056fea264697066735822122043856a5dbe190dd8f36ee5269824c69c5c50bda963a4c44b538fab212d61b26664736f6c63430008090033",
  "linkReferences": {},
  "deployedLinkReferences": {}
}