{
  "_format": "hh-sol-artifact-1",
  "contractName": "ChainList",
  "sourceName": "contracts/ChainList.sol",
  "abi": [
    {
      "inputs": [],
      "stateMutability": "nonpayable",
      "type": "constructor"
    },
    {
      "anonymous": false,
      "inputs": [
        {
          "indexed": true,
          "internalType": "uint256",
          "name": "_id",
          "type": "uint256"
        },
        {
          "indexed": true,
          "internalType": "address",
          "name": "_seller",
          "type": "address"
        },
        {
          "indexed": true,
          "internalType": "address",
          "name": "_buyer",
          "type": "address"
        },
        {
          "indexed": false,
          "internalType": "string",
          "name": "_name",
          "type": "string"
        },
        {
          "indexed": false,
          "internalType": "uint256",
          "name": "_price",
          "type": "uint256"
        }
      ],
      "name": "BuyArticleEvent",
      "type": "event"
    },
    {
      "anonymous": false,
      "inputs": [
        {
          "indexed": true,
          "internalType": "address",
          "name": "previousOwner",
          "type": "address"
        },
        {
          "indexed": true,
          "internalType": "address",
          "name": "newOwner",
          "type": "address"
        }
      ],
      "name": "OwnershipTransferred",
      "type": "event"
    },
    {
      "anonymous": false,
      "inputs": [
        {
          "indexed": true,
          "internalType": "uint256",
          "name": "_id",
          "type": "uint256"
        },
        {
          "indexed": true,
          "internalType": "address",
          "name": "_seller",
          "type": "address"
        },
        {
          "indexed": false,
          "internalType": "string",
          "name": "_name",
          "type": "string"
        },
        {
          "indexed": false,
          "internalType": "uint256",
          "name": "_price",
          "type": "uint256"
        }
      ],
      "name": "SellArticleEvent",
      "type": "event"
    },
    {
      "stateMutability": "nonpayable",
      "type": "fallback"
    },
    {
      "inputs": [
        {
          "internalType": "bool",
          "name": "_active",
          "type": "bool"
        }
      ],
      "name": "activate",
      "outputs": [],
      "stateMutability": "nonpayable",
      "type": "function"
    },
    {
      "inputs": [
        {
          "internalType": "uint256",
          "name": "",
          "type": "uint256"
        }
      ],
      "name": "articles",
      "outputs": [
        {
          "internalType": "uint256",
          "name": "id",
          "type": "uint256"
        },
        {
          "internalType": "address payable",
          "name": "owner",
          "type": "address"
        },
        {
          "internalType": "string",
          "name": "name",
          "type": "string"
        },
        {
          "internalType": "string",
          "name": "description",
          "type": "string"
        },
        {
          "internalType": "uint256",
          "name": "price",
          "type": "uint256"
        }
      ],
      "stateMutability": "view",
      "type": "function"
    },
    {
      "inputs": [
        {
          "internalType": "uint256",
          "name": "_id",
          "type": "uint256"
        }
      ],
      "name": "buyArticle",
      "outputs": [],
      "stateMutability": "payable",
      "type": "function"
    },
    {
      "inputs": [],
      "name": "getMarketplace",
      "outputs": [
        {
          "components": [
            {
              "internalType": "uint256",
              "name": "id",
              "type": "uint256"
            },
            {
              "internalType": "address payable",
              "name": "owner",
              "type": "address"
            },
            {
              "internalType": "string",
              "name": "name",
              "type": "string"
            },
            {
              "internalType": "string",
              "name": "description",
              "type": "string"
            },
            {
              "internalType": "uint256",
              "name": "price",
              "type": "uint256"
            }
          ],
          "internalType": "struct ChainList.Article[]",
          "name": "",
          "type": "tuple[]"
        }
      ],
      "stateMutability": "view",
      "type": "function"
    },
    {
      "inputs": [],
      "name": "getMyArticles",
      "outputs": [
        {
          "components": [
            {
              "internalType": "uint256",
              "name": "id",
              "type": "uint256"
            },
            {
              "internalType": "address payable",
              "name": "owner",
              "type": "address"
            },
            {
              "internalType": "string",
              "name": "name",
              "type": "string"
            },
            {
              "internalType": "string",
              "name": "description",
              "type": "string"
            },
            {
              "internalType": "uint256",
              "name": "price",
              "type": "uint256"
            }
          ],
          "internalType": "struct ChainList.Article[]",
          "name": "",
          "type": "tuple[]"
        }
      ],
      "stateMutability": "view",
      "type": "function"
    },
    {
      "inputs": [],
      "name": "getNumberOfArticles",
      "outputs": [
        {
          "internalType": "uint256",
          "name": "",
          "type": "uint256"
        }
      ],
      "stateMutability": "view",
      "type": "function"
    },
    {
      "inputs": [],
      "name": "isActive",
      "outputs": [
        {
          "internalType": "bool",
          "name": "",
          "type": "bool"
        }
      ],
      "stateMutability": "view",
      "type": "function"
    },
    {
      "inputs": [],
      "name": "isOwner",
      "outputs": [
        {
          "internalType": "bool",
          "name": "",
          "type": "bool"
        }
      ],
      "stateMutability": "view",
      "type": "function"
    },
    {
      "inputs": [],
      "name": "owner",
      "outputs": [
        {
          "internalType": "address",
          "name": "",
          "type": "address"
        }
      ],
      "stateMutability": "view",
      "type": "function"
    },
    {
      "inputs": [],
      "name": "renounceOwnership",
      "outputs": [],
      "stateMutability": "nonpayable",
      "type": "function"
    },
    {
      "inputs": [
        {
          "internalType": "string",
          "name": "_name",
          "type": "string"
        },
        {
          "internalType": "string",
          "name": "_description",
          "type": "string"
        },
        {
          "internalType": "uint256",
          "name": "_price",
          "type": "uint256"
        }
      ],
      "name": "sellArticle",
      "outputs": [],
      "stateMutability": "nonpayable",
      "type": "function"
    },
    {
      "inputs": [
        {
          "internalType": "address",
          "name": "newOwner",
          "type": "address"
        }
      ],
      "name": "transferOwnership",
      "outputs": [],
      "stateMutability": "nonpayable",
      "type": "function"
    }
  ],
  "bytecode": "0x608060405234801561001057600080fd5b5061002d61002261004d60201b60201c565b61005560201b60201c565b6001600060146101000a81548160ff021916908315150217905550610119565b600033905090565b60008060009054906101000a900473ffffffffffffffffffffffffffffffffffffffff169050816000806101000a81548173ffffffffffffffffffffffffffffffffffffffff021916908373ffffffffffffffffffffffffffffffffffffffff1602179055508173ffffffffffffffffffffffffffffffffffffffff168173ffffffffffffffffffffffffffffffffffffffff167f8be0079c531659141344cd1fd0a4f28419497f9722a3daafe3b4186f6b6457e060405160405180910390a35050565b61218980620001296000396000f3fe6080604052600436106100ab5760003560e01c80638f32d59b116100645780638f32d59b146101a0578063b5df05fc146101cb578063ce5e84a3146101f6578063d26095151461021f578063edcfafe614610248578063f2fde38b14610289576100ac565b80630d21bcd5146100c15780631cc4baa8146100ec57806322f3e2d414610108578063715018a61461013357806389da85d31461014a5780638da5cb5b14610175576100ac565b5b3480156100b857600080fd5b50600180819055005b3480156100cd57600080fd5b506100d66102b2565b6040516100e3919061147c565b60405180910390f35b610106600480360381019061010191906114de565b6104a7565b005b34801561011457600080fd5b5061011d6107fa565b60405161012a9190611526565b60405180910390f35b34801561013f57600080fd5b50610148610810565b005b34801561015657600080fd5b5061015f610824565b60405161016c9190611550565b60405180910390f35b34801561018157600080fd5b5061018a61082e565b604051610197919061158c565b60405180910390f35b3480156101ac57600080fd5b506101b5610857565b6040516101c29190611526565b60405180910390f35b3480156101d757600080fd5b506101e0610894565b6040516101ed919061147c565b60405180910390f35b34801561020257600080fd5b5061021d600480360381019061021891906115d3565b610a18565b005b34801561022b57600080fd5b5061024660048036038101906102419190611735565b610a3d565b005b34801561025457600080fd5b5061026f600480360381019061026a91906114de565b610c6e565b604051610280959493929190611819565b60405180910390f35b34801561029557600080fd5b506102b060048036038101906102ab91906118a6565b610dd4565b005b6060600060149054906101000a900460ff16610303576040517f08c379a00000000000000000000000000000000000000000000000000000000081526004016102fa9061191f565b60405180910390fd5b600060035467ffffffffffffffff8111156103215761032061160a565b5b60405190808252806020026020018201604052801561034f5781602001602082028036833780820191505090505b509050600080600190505b6003548111610495573373ffffffffffffffffffffffffffffffffffffffff166002600083815260200190815260200160002060010160009054906101000a900473ffffffffffffffffffffffffffffffffffffffff1673ffffffffffffffffffffffffffffffffffffffff16141580156104385750600073ffffffffffffffffffffffffffffffffffffffff166002600083815260200190815260200160002060010160009054906101000a900473ffffffffffffffffffffffffffffffffffffffff1673ffffffffffffffffffffffffffffffffffffffff1614155b156104825760026000828152602001908152602001600020600001548383815181106104675761046661193f565b5b602002602001018181525050818061047e9061199d565b9250505b808061048d9061199d565b91505061035a565b506104a08282610e57565b9250505090565b600060149054906101000a900460ff166104f6576040517f08c379a00000000000000000000000000000000000000000000000000000000081526004016104ed9061191f565b60405180910390fd5b60006003541161053b576040517f08c379a000000000000000000000000000000000000000000000000000000000815260040161053290611a31565b60405180910390fd5b60008111801561054d57506003548111155b61058c576040517f08c379a000000000000000000000000000000000000000000000000000000000815260040161058390611a9d565b60405180910390fd5b60006002600083815260200190815260200160002090508060010160009054906101000a900473ffffffffffffffffffffffffffffffffffffffff1673ffffffffffffffffffffffffffffffffffffffff163373ffffffffffffffffffffffffffffffffffffffff1603610635576040517f08c379a000000000000000000000000000000000000000000000000000000000815260040161062c90611b2f565b60405180910390fd5b8060040154341461067b576040517f08c379a000000000000000000000000000000000000000000000000000000000815260040161067290611b9b565b60405180910390fd5b60008160010160009054906101000a900473ffffffffffffffffffffffffffffffffffffffff1690508073ffffffffffffffffffffffffffffffffffffffff166108fc349081150290604051600060405180830381858888f193505050501580156106ea573d6000803e3d6000fd5b50338260010160006101000a81548173ffffffffffffffffffffffffffffffffffffffff021916908373ffffffffffffffffffffffffffffffffffffffff1602179055503373ffffffffffffffffffffffffffffffffffffffff168173ffffffffffffffffffffffffffffffffffffffff16847f933d1098c688ba47d0f2b5d4d9eb8616d0cb2a68998c45ea3f35df12fb9d6def856002018660040154604051610795929190611cb4565b60405180910390a43373ffffffffffffffffffffffffffffffffffffffff16837f435e70f0dc3155a3a315273a7ef18006eabafe620cee176dc37c4e015142df968460020185600401546040516107ed929190611cb4565b60405180910390a3505050565b60008060149054906101000a900460ff16905090565b6108186110c4565b6108226000611142565b565b6000600354905090565b60008060009054906101000a900473ffffffffffffffffffffffffffffffffffffffff16905090565b600061086161082e565b73ffffffffffffffffffffffffffffffffffffffff163373ffffffffffffffffffffffffffffffffffffffff1614905090565b6060600060149054906101000a900460ff166108e5576040517f08c379a00000000000000000000000000000000000000000000000000000000081526004016108dc9061191f565b60405180910390fd5b600060035467ffffffffffffffff8111156109035761090261160a565b5b6040519080825280602002602001820160405280156109315781602001602082028036833780820191505090505b509050600080600190505b6003548111610a06573373ffffffffffffffffffffffffffffffffffffffff166002600083815260200190815260200160002060010160009054906101000a900473ffffffffffffffffffffffffffffffffffffffff1673ffffffffffffffffffffffffffffffffffffffff16036109f35760026000828152602001908152602001600020600001548383815181106109d8576109d761193f565b5b60200260200101818152505081806109ef9061199d565b9250505b80806109fe9061199d565b91505061093c565b50610a118282610e57565b9250505090565b610a206110c4565b80600060146101000a81548160ff02191690831515021790555050565b600060149054906101000a900460ff16610a8c576040517f08c379a0000000000000000000000000000000000000000000000000000000008152600401610a839061191f565b60405180910390fd5b60008390506000815111610ad5576040517f08c379a0000000000000000000000000000000000000000000000000000000008152600401610acc90611d30565b60405180910390fd5b60008390506000815111610b1e576040517f08c379a0000000000000000000000000000000000000000000000000000000008152600401610b1590611d9c565b60405180910390fd5b60036000815480929190610b319061199d565b91905055506040518060a0016040528060035481526020013373ffffffffffffffffffffffffffffffffffffffff168152602001868152602001858152602001848152506002600060035481526020019081526020016000206000820151816000015560208201518160010160006101000a81548173ffffffffffffffffffffffffffffffffffffffff021916908373ffffffffffffffffffffffffffffffffffffffff1602179055506040820151816002019081610bf09190611f53565b506060820151816003019081610c069190611f53565b50608082015181600401559050503373ffffffffffffffffffffffffffffffffffffffff166003547f435e70f0dc3155a3a315273a7ef18006eabafe620cee176dc37c4e015142df968786604051610c5f929190612025565b60405180910390a35050505050565b60026020528060005260406000206000915090508060000154908060010160009054906101000a900473ffffffffffffffffffffffffffffffffffffffff1690806002018054610cbd90611bea565b80601f0160208091040260200160405190810160405280929190818152602001828054610ce990611bea565b8015610d365780601f10610d0b57610100808354040283529160200191610d36565b820191906000526020600020905b815481529060010190602001808311610d1957829003601f168201915b505050505090806003018054610d4b90611bea565b80601f0160208091040260200160405190810160405280929190818152602001828054610d7790611bea565b8015610dc45780601f10610d9957610100808354040283529160200191610dc4565b820191906000526020600020905b815481529060010190602001808311610da757829003601f168201915b5050505050908060040154905085565b610ddc6110c4565b600073ffffffffffffffffffffffffffffffffffffffff168173ffffffffffffffffffffffffffffffffffffffff1603610e4b576040517f08c379a0000000000000000000000000000000000000000000000000000000008152600401610e42906120c7565b60405180910390fd5b610e5481611142565b50565b606060008267ffffffffffffffff811115610e7557610e7461160a565b5b604051908082528060200260200182016040528015610eae57816020015b610e9b61120e565b815260200190600190039081610e935790505b50905060005b838110156110b957600060026000878481518110610ed557610ed461193f565b5b602002602001015181526020019081526020016000206040518060a0016040529081600082015481526020016001820160009054906101000a900473ffffffffffffffffffffffffffffffffffffffff1673ffffffffffffffffffffffffffffffffffffffff1673ffffffffffffffffffffffffffffffffffffffff168152602001600282018054610f6690611bea565b80601f0160208091040260200160405190810160405280929190818152602001828054610f9290611bea565b8015610fdf5780601f10610fb457610100808354040283529160200191610fdf565b820191906000526020600020905b815481529060010190602001808311610fc257829003601f168201915b50505050508152602001600382018054610ff890611bea565b80601f016020809104026020016040519081016040528092919081815260200182805461102490611bea565b80156110715780601f1061104657610100808354040283529160200191611071565b820191906000526020600020905b81548152906001019060200180831161105457829003601f168201915b5050505050815260200160048201548152505090508083838151811061109a5761109961193f565b5b60200260200101819052505080806110b19061199d565b915050610eb4565b508091505092915050565b6110cc611206565b73ffffffffffffffffffffffffffffffffffffffff166110ea61082e565b73ffffffffffffffffffffffffffffffffffffffff1614611140576040517f08c379a000000000000000000000000000000000000000000000000000000000815260040161113790612133565b60405180910390fd5b565b60008060009054906101000a900473ffffffffffffffffffffffffffffffffffffffff169050816000806101000a81548173ffffffffffffffffffffffffffffffffffffffff021916908373ffffffffffffffffffffffffffffffffffffffff1602179055508173ffffffffffffffffffffffffffffffffffffffff168173ffffffffffffffffffffffffffffffffffffffff167f8be0079c531659141344cd1fd0a4f28419497f9722a3daafe3b4186f6b6457e060405160405180910390a35050565b600033905090565b6040518060a0016040528060008152602001600073ffffffffffffffffffffffffffffffffffffffff1681526020016060815260200160608152602001600081525090565b600081519050919050565b600082825260208201905092915050565b6000819050602082019050919050565b6000819050919050565b6112928161127f565b82525050565b600073ffffffffffffffffffffffffffffffffffffffff82169050919050565b60006112c382611298565b9050919050565b6112d3816112b8565b82525050565b600081519050919050565b600082825260208201905092915050565b60005b838110156113135780820151818401526020810190506112f8565b60008484015250505050565b6000601f19601f8301169050919050565b600061133b826112d9565b61134581856112e4565b93506113558185602086016112f5565b61135e8161131f565b840191505092915050565b600060a0830160008301516113816000860182611289565b50602083015161139460208601826112ca565b50604083015184820360408601526113ac8282611330565b915050606083015184820360608601526113c68282611330565b91505060808301516113db6080860182611289565b508091505092915050565b60006113f28383611369565b905092915050565b6000602082019050919050565b600061141282611253565b61141c818561125e565b93508360208202850161142e8561126f565b8060005b8581101561146a578484038952815161144b85826113e6565b9450611456836113fa565b925060208a01995050600181019050611432565b50829750879550505050505092915050565b600060208201905081810360008301526114968184611407565b905092915050565b6000604051905090565b600080fd5b600080fd5b6114bb8161127f565b81146114c657600080fd5b50565b6000813590506114d8816114b2565b92915050565b6000602082840312156114f4576114f36114a8565b5b6000611502848285016114c9565b91505092915050565b60008115159050919050565b6115208161150b565b82525050565b600060208201905061153b6000830184611517565b92915050565b61154a8161127f565b82525050565b60006020820190506115656000830184611541565b92915050565b600061157682611298565b9050919050565b6115868161156b565b82525050565b60006020820190506115a1600083018461157d565b92915050565b6115b08161150b565b81146115bb57600080fd5b50565b6000813590506115cd816115a7565b92915050565b6000602082840312156115e9576115e86114a8565b5b60006115f7848285016115be565b91505092915050565b600080fd5b600080fd5b7f4e487b7100000000000000000000000000000000000000000000000000000000600052604160045260246000fd5b6116428261131f565b810181811067ffffffffffffffff821117156116615761166061160a565b5b80604052505050565b600061167461149e565b90506116808282611639565b919050565b600067ffffffffffffffff8211156116a05761169f61160a565b5b6116a98261131f565b9050602081019050919050565b82818337600083830152505050565b60006116d86116d384611685565b61166a565b9050828152602081018484840111156116f4576116f3611605565b5b6116ff8482856116b6565b509392505050565b600082601f83011261171c5761171b611600565b5b813561172c8482602086016116c5565b91505092915050565b60008060006060848603121561174e5761174d6114a8565b5b600084013567ffffffffffffffff81111561176c5761176b6114ad565b5b61177886828701611707565b935050602084013567ffffffffffffffff811115611799576117986114ad565b5b6117a586828701611707565b92505060406117b6868287016114c9565b9150509250925092565b6117c9816112b8565b82525050565b600082825260208201905092915050565b60006117eb826112d9565b6117f581856117cf565b93506118058185602086016112f5565b61180e8161131f565b840191505092915050565b600060a08201905061182e6000830188611541565b61183b60208301876117c0565b818103604083015261184d81866117e0565b9050818103606083015261186181856117e0565b90506118706080830184611541565b9695505050505050565b6118838161156b565b811461188e57600080fd5b50565b6000813590506118a08161187a565b92915050565b6000602082840312156118bc576118bb6114a8565b5b60006118ca84828501611891565b91505092915050565b7f4e6f742061637469766500000000000000000000000000000000000000000000600082015250565b6000611909600a836117cf565b9150611914826118d3565b602082019050919050565b60006020820190508181036000830152611938816118fc565b9050919050565b7f4e487b7100000000000000000000000000000000000000000000000000000000600052603260045260246000fd5b7f4e487b7100000000000000000000000000000000000000000000000000000000600052601160045260246000fd5b60006119a88261127f565b91507fffffffffffffffffffffffffffffffffffffffffffffffffffffffffffffffff82036119da576119d961196e565b5b600182019050919050565b7f4e6f2061727469636c657320746f206275790000000000000000000000000000600082015250565b6000611a1b6012836117cf565b9150611a26826119e5565b602082019050919050565b60006020820190508181036000830152611a4a81611a0e565b9050919050565b7f41727469636c6520646f65736e27742065786973740000000000000000000000600082015250565b6000611a876015836117cf565b9150611a9282611a51565b602082019050919050565b60006020820190508181036000830152611ab681611a7a565b9050919050565b7f53656c6c65722063616e6e6f742062757920686973206f776e2061727469636c60008201527f6500000000000000000000000000000000000000000000000000000000000000602082015250565b6000611b196021836117cf565b9150611b2482611abd565b604082019050919050565b60006020820190508181036000830152611b4881611b0c565b9050919050565b7f507269636520646f65736e2774206d6174636800000000000000000000000000600082015250565b6000611b856013836117cf565b9150611b9082611b4f565b602082019050919050565b60006020820190508181036000830152611bb481611b78565b9050919050565b7f4e487b7100000000000000000000000000000000000000000000000000000000600052602260045260246000fd5b60006002820490506001821680611c0257607f821691505b602082108103611c1557611c14611bbb565b5b50919050565b60008190508160005260206000209050919050565b60008154611c3d81611bea565b611c4781866117cf565b94506001821660008114611c625760018114611c7857611cab565b60ff198316865281151560200286019350611cab565b611c8185611c1b565b60005b83811015611ca357815481890152600182019150602081019050611c84565b808801955050505b50505092915050565b60006040820190508181036000830152611cce8185611c30565b9050611cdd6020830184611541565b9392505050565b7f41206e616d652069732072657175697265640000000000000000000000000000600082015250565b6000611d1a6012836117cf565b9150611d2582611ce4565b602082019050919050565b60006020820190508181036000830152611d4981611d0d565b9050919050565b7f41206465736372697074696f6e20697320726571756972656400000000000000600082015250565b6000611d866019836117cf565b9150611d9182611d50565b602082019050919050565b60006020820190508181036000830152611db581611d79565b9050919050565b60006020601f8301049050919050565b600082821b905092915050565b600060088302611e097fffffffffffffffffffffffffffffffffffffffffffffffffffffffffffffffff82611dcc565b611e138683611dcc565b95508019841693508086168417925050509392505050565b6000819050919050565b6000611e50611e4b611e468461127f565b611e2b565b61127f565b9050919050565b6000819050919050565b611e6a83611e35565b611e7e611e7682611e57565b848454611dd9565b825550505050565b600090565b611e93611e86565b611e9e818484611e61565b505050565b5b81811015611ec257611eb7600082611e8b565b600181019050611ea4565b5050565b601f821115611f0757611ed881611c1b565b611ee184611dbc565b81016020851015611ef0578190505b611f04611efc85611dbc565b830182611ea3565b50505b505050565b600082821c905092915050565b6000611f2a60001984600802611f0c565b1980831691505092915050565b6000611f438383611f19565b9150826002028217905092915050565b611f5c826112d9565b67ffffffffffffffff811115611f7557611f7461160a565b5b611f7f8254611bea565b611f8a828285611ec6565b600060209050601f831160018114611fbd5760008415611fab578287015190505b611fb58582611f37565b86555061201d565b601f198416611fcb86611c1b565b60005b82811015611ff357848901518255600182019150602085019450602081019050611fce565b86831015612010578489015161200c601f891682611f19565b8355505b6001600288020188555050505b505050505050565b6000604082019050818103600083015261203f81856117e0565b905061204e6020830184611541565b9392505050565b7f4f776e61626c653a206e6577206f776e657220697320746865207a65726f206160008201527f6464726573730000000000000000000000000000000000000000000000000000602082015250565b60006120b16026836117cf565b91506120bc82612055565b604082019050919050565b600060208201905081810360008301526120e0816120a4565b9050919050565b7f4f776e61626c653a2063616c6c6572206973206e6f7420746865206f776e6572600082015250565b600061211d6020836117cf565b9150612128826120e7565b602082019050919050565b6000602082019050818103600083015261214c81612110565b905091905056fea26469706673582212205282e954c28a7e9c4d4455c82c17f7fb756d18174d32afff71982412051a76f064736f6c63430008110033",
  "linkReferences": {},
  "deployedLinkReferences": {}
}