{
  "_format": "hh-sol-artifact-1",
  "contractName": "ChainList",
  "sourceName": "contracts/ChainList.sol",
  "abi": [
    {
      "inputs": [],
      "stateMutability": "nonpayable",
      "type": "constructor"
    },
    {
      "anonymous": false,
      "inputs": [
        {
          "indexed": true,
          "internalType": "uint256",
          "name": "_id",
          "type": "uint256"
        },
        {
          "indexed": true,
          "internalType": "address",
          "name": "_seller",
          "type": "address"
        },
        {
          "indexed": true,
          "internalType": "address",
          "name": "_buyer",
          "type": "address"
        },
        {
          "indexed": false,
          "internalType": "string",
          "name": "_name",
          "type": "string"
        },
        {
          "indexed": false,
          "internalType": "uint256",
          "name": "_price",
          "type": "uint256"
        }
      ],
      "name": "BuyArticleEvent",
      "type": "event"
    },
    {
      "anonymous": false,
      "inputs": [
        {
          "indexed": true,
          "internalType": "address",
          "name": "previousOwner",
          "type": "address"
        },
        {
          "indexed": true,
          "internalType": "address",
          "name": "newOwner",
          "type": "address"
        }
      ],
      "name": "OwnershipTransferred",
      "type": "event"
    },
    {
      "anonymous": false,
      "inputs": [
        {
          "indexed": true,
          "internalType": "uint256",
          "name": "_id",
          "type": "uint256"
        },
        {
          "indexed": true,
          "internalType": "address",
          "name": "_seller",
          "type": "address"
        },
        {
          "indexed": false,
          "internalType": "string",
          "name": "_name",
          "type": "string"
        },
        {
          "indexed": false,
          "internalType": "uint256",
          "name": "_price",
          "type": "uint256"
        }
      ],
      "name": "SellArticleEvent",
      "type": "event"
    },
    {
      "stateMutability": "nonpayable",
      "type": "fallback"
    },
    {
      "inputs": [
        {
          "internalType": "bool",
          "name": "_active",
          "type": "bool"
        }
      ],
      "name": "activate",
      "outputs": [],
      "stateMutability": "nonpayable",
      "type": "function"
    },
    {
      "inputs": [
        {
          "internalType": "uint256",
          "name": "",
          "type": "uint256"
        }
      ],
      "name": "articles",
      "outputs": [
        {
          "internalType": "uint256",
          "name": "id",
          "type": "uint256"
        },
        {
          "internalType": "address payable",
          "name": "owner",
          "type": "address"
        },
        {
          "internalType": "string",
          "name": "name",
          "type": "string"
        },
        {
          "internalType": "string",
          "name": "description",
          "type": "string"
        },
        {
          "internalType": "uint256",
          "name": "price",
          "type": "uint256"
        }
      ],
      "stateMutability": "view",
      "type": "function"
    },
    {
      "inputs": [
        {
          "internalType": "uint256",
          "name": "_id",
          "type": "uint256"
        }
      ],
      "name": "buyArticle",
      "outputs": [],
      "stateMutability": "payable",
      "type": "function"
    },
    {
      "inputs": [],
      "name": "getMarketplace",
      "outputs": [
        {
          "components": [
            {
              "internalType": "uint256",
              "name": "id",
              "type": "uint256"
            },
            {
              "internalType": "address payable",
              "name": "owner",
              "type": "address"
            },
            {
              "internalType": "string",
              "name": "name",
              "type": "string"
            },
            {
              "internalType": "string",
              "name": "description",
              "type": "string"
            },
            {
              "internalType": "uint256",
              "name": "price",
              "type": "uint256"
            }
          ],
          "internalType": "struct ChainList.Article[]",
          "name": "",
          "type": "tuple[]"
        }
      ],
      "stateMutability": "view",
      "type": "function"
    },
    {
      "inputs": [],
      "name": "getMyArticles",
      "outputs": [
        {
          "components": [
            {
              "internalType": "uint256",
              "name": "id",
              "type": "uint256"
            },
            {
              "internalType": "address payable",
              "name": "owner",
              "type": "address"
            },
            {
              "internalType": "string",
              "name": "name",
              "type": "string"
            },
            {
              "internalType": "string",
              "name": "description",
              "type": "string"
            },
            {
              "internalType": "uint256",
              "name": "price",
              "type": "uint256"
            }
          ],
          "internalType": "struct ChainList.Article[]",
          "name": "",
          "type": "tuple[]"
        }
      ],
      "stateMutability": "view",
      "type": "function"
    },
    {
      "inputs": [],
      "name": "getNumberOfArticles",
      "outputs": [
        {
          "internalType": "uint256",
          "name": "",
          "type": "uint256"
        }
      ],
      "stateMutability": "view",
      "type": "function"
    },
    {
      "inputs": [],
      "name": "isActive",
      "outputs": [
        {
          "internalType": "bool",
          "name": "",
          "type": "bool"
        }
      ],
      "stateMutability": "view",
      "type": "function"
    },
    {
      "inputs": [],
      "name": "isOwner",
      "outputs": [
        {
          "internalType": "bool",
          "name": "",
          "type": "bool"
        }
      ],
      "stateMutability": "view",
      "type": "function"
    },
    {
      "inputs": [],
      "name": "owner",
      "outputs": [
        {
          "internalType": "address",
          "name": "",
          "type": "address"
        }
      ],
      "stateMutability": "view",
      "type": "function"
    },
    {
      "inputs": [],
      "name": "renounceOwnership",
      "outputs": [],
      "stateMutability": "nonpayable",
      "type": "function"
    },
    {
      "inputs": [
        {
          "internalType": "string",
          "name": "_name",
          "type": "string"
        },
        {
          "internalType": "string",
          "name": "_description",
          "type": "string"
        },
        {
          "internalType": "uint256",
          "name": "_price",
          "type": "uint256"
        }
      ],
      "name": "sellArticle",
      "outputs": [],
      "stateMutability": "nonpayable",
      "type": "function"
    },
    {
      "inputs": [
        {
          "internalType": "address",
          "name": "newOwner",
          "type": "address"
        }
      ],
      "name": "transferOwnership",
      "outputs": [],
      "stateMutability": "nonpayable",
      "type": "function"
    }
  ],
  "bytecode": "0x608060405234801561001057600080fd5b5061002d61002261004d60201b60201c565b61005560201b60201c565b6001600060146101000a81548160ff021916908315150217905550610119565b600033905090565b60008060009054906101000a900473ffffffffffffffffffffffffffffffffffffffff169050816000806101000a81548173ffffffffffffffffffffffffffffffffffffffff021916908373ffffffffffffffffffffffffffffffffffffffff1602179055508173ffffffffffffffffffffffffffffffffffffffff168173ffffffffffffffffffffffffffffffffffffffff167f8be0079c531659141344cd1fd0a4f28419497f9722a3daafe3b4186f6b6457e060405160405180910390a35050565b611fdc806101286000396000f3fe6080604052600436106100ab5760003560e01c80638f32d59b116100645780638f32d59b146101a1578063b5df05fc146101cc578063ce5e84a3146101f7578063d260951514610220578063edcfafe614610249578063f2fde38b1461028a576100ac565b80630d21bcd5146100c25780631cc4baa8146100ed57806322f3e2d414610109578063715018a61461013457806389da85d31461014b5780638da5cb5b14610176576100ac565b5b3480156100b857600080fd5b5060018081905550005b3480156100ce57600080fd5b506100d76102b3565b6040516100e4919061153a565b60405180910390f35b6101076004803603810190610102919061159c565b6104a8565b005b34801561011557600080fd5b5061011e6107fc565b60405161012b91906115e4565b60405180910390f35b34801561014057600080fd5b50610149610812565b005b34801561015757600080fd5b50610160610826565b60405161016d919061160e565b60405180910390f35b34801561018257600080fd5b5061018b610830565b604051610198919061164a565b60405180910390f35b3480156101ad57600080fd5b506101b6610859565b6040516101c391906115e4565b60405180910390f35b3480156101d857600080fd5b506101e1610896565b6040516101ee919061153a565b60405180910390f35b34801561020357600080fd5b5061021e60048036038101906102199190611691565b610a1b565b005b34801561022c57600080fd5b50610247600480360381019061024291906117f3565b610a40565b005b34801561025557600080fd5b50610270600480360381019061026b919061159c565b610c7f565b6040516102819594939291906118d7565b60405180910390f35b34801561029657600080fd5b506102b160048036038101906102ac9190611964565b610de5565b005b6060600060149054906101000a900460ff16610304576040517f08c379a00000000000000000000000000000000000000000000000000000000081526004016102fb906119dd565b60405180910390fd5b600060035467ffffffffffffffff811115610322576103216116c8565b5b6040519080825280602002602001820160405280156103505781602001602082028036833780820191505090505b509050600080600190505b6003548111610496573373ffffffffffffffffffffffffffffffffffffffff166002600083815260200190815260200160002060010160009054906101000a900473ffffffffffffffffffffffffffffffffffffffff1673ffffffffffffffffffffffffffffffffffffffff16141580156104395750600073ffffffffffffffffffffffffffffffffffffffff166002600083815260200190815260200160002060010160009054906101000a900473ffffffffffffffffffffffffffffffffffffffff1673ffffffffffffffffffffffffffffffffffffffff1614155b15610483576002600082815260200190815260200160002060000154838381518110610468576104676119fd565b5b602002602001018181525050818061047f90611a5b565b9250505b808061048e90611a5b565b91505061035b565b506104a18282610e69565b9250505090565b600060149054906101000a900460ff166104f7576040517f08c379a00000000000000000000000000000000000000000000000000000000081526004016104ee906119dd565b60405180910390fd5b60006003541161053c576040517f08c379a000000000000000000000000000000000000000000000000000000000815260040161053390611af0565b60405180910390fd5b60008111801561054e57506003548111155b61058d576040517f08c379a000000000000000000000000000000000000000000000000000000000815260040161058490611b5c565b60405180910390fd5b60006002600083815260200190815260200160002090508060010160009054906101000a900473ffffffffffffffffffffffffffffffffffffffff1673ffffffffffffffffffffffffffffffffffffffff163373ffffffffffffffffffffffffffffffffffffffff161415610637576040517f08c379a000000000000000000000000000000000000000000000000000000000815260040161062e90611bee565b60405180910390fd5b8060040154341461067d576040517f08c379a000000000000000000000000000000000000000000000000000000000815260040161067490611c5a565b60405180910390fd5b60008160010160009054906101000a900473ffffffffffffffffffffffffffffffffffffffff1690508073ffffffffffffffffffffffffffffffffffffffff166108fc349081150290604051600060405180830381858888f193505050501580156106ec573d6000803e3d6000fd5b50338260010160006101000a81548173ffffffffffffffffffffffffffffffffffffffff021916908373ffffffffffffffffffffffffffffffffffffffff1602179055503373ffffffffffffffffffffffffffffffffffffffff168173ffffffffffffffffffffffffffffffffffffffff16847f933d1098c688ba47d0f2b5d4d9eb8616d0cb2a68998c45ea3f35df12fb9d6def856002018660040154604051610797929190611d70565b60405180910390a43373ffffffffffffffffffffffffffffffffffffffff16837f435e70f0dc3155a3a315273a7ef18006eabafe620cee176dc37c4e015142df968460020185600401546040516107ef929190611d70565b60405180910390a3505050565b60008060149054906101000a900460ff16905090565b61081a6110d6565b6108246000611154565b565b6000600354905090565b60008060009054906101000a900473ffffffffffffffffffffffffffffffffffffffff16905090565b6000610863610830565b73ffffffffffffffffffffffffffffffffffffffff163373ffffffffffffffffffffffffffffffffffffffff1614905090565b6060600060149054906101000a900460ff166108e7576040517f08c379a00000000000000000000000000000000000000000000000000000000081526004016108de906119dd565b60405180910390fd5b600060035467ffffffffffffffff811115610905576109046116c8565b5b6040519080825280602002602001820160405280156109335781602001602082028036833780820191505090505b509050600080600190505b6003548111610a09573373ffffffffffffffffffffffffffffffffffffffff166002600083815260200190815260200160002060010160009054906101000a900473ffffffffffffffffffffffffffffffffffffffff1673ffffffffffffffffffffffffffffffffffffffff1614156109f65760026000828152602001908152602001600020600001548383815181106109db576109da6119fd565b5b60200260200101818152505081806109f290611a5b565b9250505b8080610a0190611a5b565b91505061093e565b50610a148282610e69565b9250505090565b610a236110d6565b80600060146101000a81548160ff02191690831515021790555050565b600060149054906101000a900460ff16610a8f576040517f08c379a0000000000000000000000000000000000000000000000000000000008152600401610a86906119dd565b60405180910390fd5b60008390506000815111610ad8576040517f08c379a0000000000000000000000000000000000000000000000000000000008152600401610acf90611dec565b60405180910390fd5b60008390506000815111610b21576040517f08c379a0000000000000000000000000000000000000000000000000000000008152600401610b1890611e58565b60405180910390fd5b60036000815480929190610b3490611a5b565b91905055506040518060a0016040528060035481526020013373ffffffffffffffffffffffffffffffffffffffff168152602001868152602001858152602001848152506002600060035481526020019081526020016000206000820151816000015560208201518160010160006101000a81548173ffffffffffffffffffffffffffffffffffffffff021916908373ffffffffffffffffffffffffffffffffffffffff1602179055506040820151816002019080519060200190610bfa929190611220565b506060820151816003019080519060200190610c17929190611220565b50608082015181600401559050503373ffffffffffffffffffffffffffffffffffffffff166003547f435e70f0dc3155a3a315273a7ef18006eabafe620cee176dc37c4e015142df968786604051610c70929190611e78565b60405180910390a35050505050565b60026020528060005260406000206000915090508060000154908060010160009054906101000a900473ffffffffffffffffffffffffffffffffffffffff1690806002018054610cce90611ca9565b80601f0160208091040260200160405190810160405280929190818152602001828054610cfa90611ca9565b8015610d475780601f10610d1c57610100808354040283529160200191610d47565b820191906000526020600020905b815481529060010190602001808311610d2a57829003601f168201915b505050505090806003018054610d5c90611ca9565b80601f0160208091040260200160405190810160405280929190818152602001828054610d8890611ca9565b8015610dd55780601f10610daa57610100808354040283529160200191610dd5565b820191906000526020600020905b815481529060010190602001808311610db857829003601f168201915b5050505050908060040154905085565b610ded6110d6565b600073ffffffffffffffffffffffffffffffffffffffff168173ffffffffffffffffffffffffffffffffffffffff161415610e5d576040517f08c379a0000000000000000000000000000000000000000000000000000000008152600401610e5490611f1a565b60405180910390fd5b610e6681611154565b50565b606060008267ffffffffffffffff811115610e8757610e866116c8565b5b604051908082528060200260200182016040528015610ec057816020015b610ead6112a6565b815260200190600190039081610ea55790505b50905060005b838110156110cb57600060026000878481518110610ee757610ee66119fd565b5b602002602001015181526020019081526020016000206040518060a0016040529081600082015481526020016001820160009054906101000a900473ffffffffffffffffffffffffffffffffffffffff1673ffffffffffffffffffffffffffffffffffffffff1673ffffffffffffffffffffffffffffffffffffffff168152602001600282018054610f7890611ca9565b80601f0160208091040260200160405190810160405280929190818152602001828054610fa490611ca9565b8015610ff15780601f10610fc657610100808354040283529160200191610ff1565b820191906000526020600020905b815481529060010190602001808311610fd457829003601f168201915b5050505050815260200160038201805461100a90611ca9565b80601f016020809104026020016040519081016040528092919081815260200182805461103690611ca9565b80156110835780601f1061105857610100808354040283529160200191611083565b820191906000526020600020905b81548152906001019060200180831161106657829003601f168201915b505050505081526020016004820154815250509050808383815181106110ac576110ab6119fd565b5b60200260200101819052505080806110c390611a5b565b915050610ec6565b508091505092915050565b6110de611218565b73ffffffffffffffffffffffffffffffffffffffff166110fc610830565b73ffffffffffffffffffffffffffffffffffffffff1614611152576040517f08c379a000000000000000000000000000000000000000000000000000000000815260040161114990611f86565b60405180910390fd5b565b60008060009054906101000a900473ffffffffffffffffffffffffffffffffffffffff169050816000806101000a81548173ffffffffffffffffffffffffffffffffffffffff021916908373ffffffffffffffffffffffffffffffffffffffff1602179055508173ffffffffffffffffffffffffffffffffffffffff168173ffffffffffffffffffffffffffffffffffffffff167f8be0079c531659141344cd1fd0a4f28419497f9722a3daafe3b4186f6b6457e060405160405180910390a35050565b600033905090565b82805461122c90611ca9565b90600052602060002090601f01602090048101928261124e5760008555611295565b82601f1061126757805160ff1916838001178555611295565b82800160010185558215611295579182015b82811115611294578251825591602001919060010190611279565b5b5090506112a291906112eb565b5090565b6040518060a0016040528060008152602001600073ffffffffffffffffffffffffffffffffffffffff1681526020016060815260200160608152602001600081525090565b5b808211156113045760008160009055506001016112ec565b5090565b600081519050919050565b600082825260208201905092915050565b6000819050602082019050919050565b6000819050919050565b61134781611334565b82525050565b600073ffffffffffffffffffffffffffffffffffffffff82169050919050565b60006113788261134d565b9050919050565b6113888161136d565b82525050565b600081519050919050565b600082825260208201905092915050565b60005b838110156113c85780820151818401526020810190506113ad565b838111156113d7576000848401525b50505050565b6000601f19601f8301169050919050565b60006113f98261138e565b6114038185611399565b93506114138185602086016113aa565b61141c816113dd565b840191505092915050565b600060a08301600083015161143f600086018261133e565b506020830151611452602086018261137f565b506040830151848203604086015261146a82826113ee565b9150506060830151848203606086015261148482826113ee565b9150506080830151611499608086018261133e565b508091505092915050565b60006114b08383611427565b905092915050565b6000602082019050919050565b60006114d082611308565b6114da8185611313565b9350836020820285016114ec85611324565b8060005b85811015611528578484038952815161150985826114a4565b9450611514836114b8565b925060208a019950506001810190506114f0565b50829750879550505050505092915050565b6000602082019050818103600083015261155481846114c5565b905092915050565b6000604051905090565b600080fd5b600080fd5b61157981611334565b811461158457600080fd5b50565b60008135905061159681611570565b92915050565b6000602082840312156115b2576115b1611566565b5b60006115c084828501611587565b91505092915050565b60008115159050919050565b6115de816115c9565b82525050565b60006020820190506115f960008301846115d5565b92915050565b61160881611334565b82525050565b600060208201905061162360008301846115ff565b92915050565b60006116348261134d565b9050919050565b61164481611629565b82525050565b600060208201905061165f600083018461163b565b92915050565b61166e816115c9565b811461167957600080fd5b50565b60008135905061168b81611665565b92915050565b6000602082840312156116a7576116a6611566565b5b60006116b58482850161167c565b91505092915050565b600080fd5b600080fd5b7f4e487b7100000000000000000000000000000000000000000000000000000000600052604160045260246000fd5b611700826113dd565b810181811067ffffffffffffffff8211171561171f5761171e6116c8565b5b80604052505050565b600061173261155c565b905061173e82826116f7565b919050565b600067ffffffffffffffff82111561175e5761175d6116c8565b5b611767826113dd565b9050602081019050919050565b82818337600083830152505050565b600061179661179184611743565b611728565b9050828152602081018484840111156117b2576117b16116c3565b5b6117bd848285611774565b509392505050565b600082601f8301126117da576117d96116be565b5b81356117ea848260208601611783565b91505092915050565b60008060006060848603121561180c5761180b611566565b5b600084013567ffffffffffffffff81111561182a5761182961156b565b5b611836868287016117c5565b935050602084013567ffffffffffffffff8111156118575761185661156b565b5b611863868287016117c5565b925050604061187486828701611587565b9150509250925092565b6118878161136d565b82525050565b600082825260208201905092915050565b60006118a98261138e565b6118b3818561188d565b93506118c38185602086016113aa565b6118cc816113dd565b840191505092915050565b600060a0820190506118ec60008301886115ff565b6118f9602083018761187e565b818103604083015261190b818661189e565b9050818103606083015261191f818561189e565b905061192e60808301846115ff565b9695505050505050565b61194181611629565b811461194c57600080fd5b50565b60008135905061195e81611938565b92915050565b60006020828403121561197a57611979611566565b5b60006119888482850161194f565b91505092915050565b7f4e6f742061637469766500000000000000000000000000000000000000000000600082015250565b60006119c7600a8361188d565b91506119d282611991565b602082019050919050565b600060208201905081810360008301526119f6816119ba565b9050919050565b7f4e487b7100000000000000000000000000000000000000000000000000000000600052603260045260246000fd5b7f4e487b7100000000000000000000000000000000000000000000000000000000600052601160045260246000fd5b6000611a6682611334565b91507fffffffffffffffffffffffffffffffffffffffffffffffffffffffffffffffff821415611a9957611a98611a2c565b5b600182019050919050565b7f4e6f2061727469636c657320746f206275790000000000000000000000000000600082015250565b6000611ada60128361188d565b9150611ae582611aa4565b602082019050919050565b60006020820190508181036000830152611b0981611acd565b9050919050565b7f41727469636c6520646f65736e27742065786973740000000000000000000000600082015250565b6000611b4660158361188d565b9150611b5182611b10565b602082019050919050565b60006020820190508181036000830152611b7581611b39565b9050919050565b7f53656c6c65722063616e6e6f742062757920686973206f776e2061727469636c60008201527f6500000000000000000000000000000000000000000000000000000000000000602082015250565b6000611bd860218361188d565b9150611be382611b7c565b604082019050919050565b60006020820190508181036000830152611c0781611bcb565b9050919050565b7f507269636520646f65736e2774206d6174636800000000000000000000000000600082015250565b6000611c4460138361188d565b9150611c4f82611c0e565b602082019050919050565b60006020820190508181036000830152611c7381611c37565b9050919050565b7f4e487b7100000000000000000000000000000000000000000000000000000000600052602260045260246000fd5b60006002820490506001821680611cc157607f821691505b60208210811415611cd557611cd4611c7a565b5b50919050565b60008190508160005260206000209050919050565b60008154611cfd81611ca9565b611d07818661188d565b94506001821660008114611d225760018114611d3457611d67565b60ff1983168652602086019350611d67565b611d3d85611cdb565b60005b83811015611d5f57815481890152600182019150602081019050611d40565b808801955050505b50505092915050565b60006040820190508181036000830152611d8a8185611cf0565b9050611d9960208301846115ff565b9392505050565b7f41206e616d652069732072657175697265640000000000000000000000000000600082015250565b6000611dd660128361188d565b9150611de182611da0565b602082019050919050565b60006020820190508181036000830152611e0581611dc9565b9050919050565b7f41206465736372697074696f6e20697320726571756972656400000000000000600082015250565b6000611e4260198361188d565b9150611e4d82611e0c565b602082019050919050565b60006020820190508181036000830152611e7181611e35565b9050919050565b60006040820190508181036000830152611e92818561189e565b9050611ea160208301846115ff565b9392505050565b7f4f776e61626c653a206e6577206f776e657220697320746865207a65726f206160008201527f6464726573730000000000000000000000000000000000000000000000000000602082015250565b6000611f0460268361188d565b9150611f0f82611ea8565b604082019050919050565b60006020820190508181036000830152611f3381611ef7565b9050919050565b7f4f776e61626c653a2063616c6c6572206973206e6f7420746865206f776e6572600082015250565b6000611f7060208361188d565b9150611f7b82611f3a565b602082019050919050565b60006020820190508181036000830152611f9f81611f63565b905091905056fea2646970667358221220d61c95e661bcd3563bb310f9a7e2077c43c1c1ce7464a4e710fe5b685c01a19b64736f6c63430008090033",
  "linkReferences": {},
  "deployedLinkReferences": {}
}