{
  "_format": "hh-sol-artifact-1",
  "contractName": "ChainList",
  "sourceName": "contracts/ChainList.sol",
  "abi": [
    {
      "anonymous": false,
      "inputs": [
        {
          "indexed": true,
          "internalType": "uint256",
          "name": "_id",
          "type": "uint256"
        },
        {
          "indexed": true,
          "internalType": "address",
          "name": "_seller",
          "type": "address"
        },
        {
          "indexed": true,
          "internalType": "address",
          "name": "_buyer",
          "type": "address"
        },
        {
          "indexed": false,
          "internalType": "string",
          "name": "_name",
          "type": "string"
        },
        {
          "indexed": false,
          "internalType": "uint256",
          "name": "_price",
          "type": "uint256"
        }
      ],
      "name": "BuyArticleEvent",
      "type": "event"
    },
    {
      "anonymous": false,
      "inputs": [
        {
          "indexed": true,
          "internalType": "uint256",
          "name": "_id",
          "type": "uint256"
        },
        {
          "indexed": true,
          "internalType": "address",
          "name": "_seller",
          "type": "address"
        },
        {
          "indexed": false,
          "internalType": "string",
          "name": "_name",
          "type": "string"
        },
        {
          "indexed": false,
          "internalType": "uint256",
          "name": "_price",
          "type": "uint256"
        }
      ],
      "name": "SellArticleEvent",
      "type": "event"
    },
    {
      "stateMutability": "nonpayable",
      "type": "fallback"
    },
    {
      "inputs": [
        {
          "internalType": "uint256",
          "name": "",
          "type": "uint256"
        }
      ],
      "name": "articles",
      "outputs": [
        {
          "internalType": "uint256",
          "name": "id",
          "type": "uint256"
        },
        {
          "internalType": "address payable",
          "name": "owner",
          "type": "address"
        },
        {
          "internalType": "string",
          "name": "name",
          "type": "string"
        },
        {
          "internalType": "string",
          "name": "description",
          "type": "string"
        },
        {
          "internalType": "uint256",
          "name": "price",
          "type": "uint256"
        }
      ],
      "stateMutability": "view",
      "type": "function"
    },
    {
      "inputs": [
        {
          "internalType": "uint256",
          "name": "_id",
          "type": "uint256"
        }
      ],
      "name": "buyArticle",
      "outputs": [],
      "stateMutability": "payable",
      "type": "function"
    },
    {
      "inputs": [],
      "name": "getMarketplace",
      "outputs": [
        {
          "components": [
            {
              "internalType": "uint256",
              "name": "id",
              "type": "uint256"
            },
            {
              "internalType": "address payable",
              "name": "owner",
              "type": "address"
            },
            {
              "internalType": "string",
              "name": "name",
              "type": "string"
            },
            {
              "internalType": "string",
              "name": "description",
              "type": "string"
            },
            {
              "internalType": "uint256",
              "name": "price",
              "type": "uint256"
            }
          ],
          "internalType": "struct ChainList.Article[]",
          "name": "",
          "type": "tuple[]"
        }
      ],
      "stateMutability": "view",
      "type": "function"
    },
    {
      "inputs": [],
      "name": "getMyArticles",
      "outputs": [
        {
          "components": [
            {
              "internalType": "uint256",
              "name": "id",
              "type": "uint256"
            },
            {
              "internalType": "address payable",
              "name": "owner",
              "type": "address"
            },
            {
              "internalType": "string",
              "name": "name",
              "type": "string"
            },
            {
              "internalType": "string",
              "name": "description",
              "type": "string"
            },
            {
              "internalType": "uint256",
              "name": "price",
              "type": "uint256"
            }
          ],
          "internalType": "struct ChainList.Article[]",
          "name": "",
          "type": "tuple[]"
        }
      ],
      "stateMutability": "view",
      "type": "function"
    },
    {
      "inputs": [],
      "name": "getNumberOfArticles",
      "outputs": [
        {
          "internalType": "uint256",
          "name": "",
          "type": "uint256"
        }
      ],
      "stateMutability": "view",
      "type": "function"
    },
    {
      "inputs": [
        {
          "internalType": "string",
          "name": "_name",
          "type": "string"
        },
        {
          "internalType": "string",
          "name": "_description",
          "type": "string"
        },
        {
          "internalType": "uint256",
          "name": "_price",
          "type": "uint256"
        }
      ],
      "name": "sellArticle",
      "outputs": [],
      "stateMutability": "nonpayable",
      "type": "function"
    }
  ],
  "bytecode": "0x608060405234801561001057600080fd5b50611a02806100206000396000f3fe6080604052600436106100595760003560e01c80630d21bcd5146100705780631cc4baa81461009b57806389da85d3146100b7578063b5df05fc146100e2578063d26095151461010d578063edcfafe6146101365761005a565b5b34801561006657600080fd5b5060016000819055005b34801561007c57600080fd5b50610085610177565b6040516100929190610f83565b60405180910390f35b6100b560048036038101906100b09190610fe5565b61031d565b005b3480156100c357600080fd5b506100cc610621565b6040516100d99190611021565b60405180910390f35b3480156100ee57600080fd5b506100f761062b565b6040516101049190610f83565b60405180910390f35b34801561011957600080fd5b50610134600480360381019061012f9190611171565b610760565b005b34801561014257600080fd5b5061015d60048036038101906101589190610fe5565b610942565b60405161016e959493929190611255565b60405180910390f35b6060600060025467ffffffffffffffff81111561019757610196611046565b5b6040519080825280602002602001820160405280156101c55781602001602082028036833780820191505090505b509050600080600190505b600254811161030b573373ffffffffffffffffffffffffffffffffffffffff166001600083815260200190815260200160002060010160009054906101000a900473ffffffffffffffffffffffffffffffffffffffff1673ffffffffffffffffffffffffffffffffffffffff16141580156102ae5750600073ffffffffffffffffffffffffffffffffffffffff166001600083815260200190815260200160002060010160009054906101000a900473ffffffffffffffffffffffffffffffffffffffff1673ffffffffffffffffffffffffffffffffffffffff1614155b156102f85760016000828152602001908152602001600020600001548383815181106102dd576102dc6112b6565b5b60200260200101818152505081806102f490611314565b9250505b808061030390611314565b9150506101d0565b506103168282610aa8565b9250505090565b600060025411610362576040517f08c379a0000000000000000000000000000000000000000000000000000000008152600401610359906113a8565b60405180910390fd5b60008111801561037457506002548111155b6103b3576040517f08c379a00000000000000000000000000000000000000000000000000000000081526004016103aa90611414565b60405180910390fd5b60006001600083815260200190815260200160002090508060010160009054906101000a900473ffffffffffffffffffffffffffffffffffffffff1673ffffffffffffffffffffffffffffffffffffffff163373ffffffffffffffffffffffffffffffffffffffff160361045c576040517f08c379a0000000000000000000000000000000000000000000000000000000008152600401610453906114a6565b60405180910390fd5b806004015434146104a2576040517f08c379a000000000000000000000000000000000000000000000000000000000815260040161049990611512565b60405180910390fd5b60008160010160009054906101000a900473ffffffffffffffffffffffffffffffffffffffff1690508073ffffffffffffffffffffffffffffffffffffffff166108fc349081150290604051600060405180830381858888f19350505050158015610511573d6000803e3d6000fd5b50338260010160006101000a81548173ffffffffffffffffffffffffffffffffffffffff021916908373ffffffffffffffffffffffffffffffffffffffff1602179055503373ffffffffffffffffffffffffffffffffffffffff168173ffffffffffffffffffffffffffffffffffffffff16847f933d1098c688ba47d0f2b5d4d9eb8616d0cb2a68998c45ea3f35df12fb9d6def8560020186600401546040516105bc92919061162b565b60405180910390a43373ffffffffffffffffffffffffffffffffffffffff16837f435e70f0dc3155a3a315273a7ef18006eabafe620cee176dc37c4e015142df9684600201856004015460405161061492919061162b565b60405180910390a3505050565b6000600254905090565b6060600060025467ffffffffffffffff81111561064b5761064a611046565b5b6040519080825280602002602001820160405280156106795781602001602082028036833780820191505090505b509050600080600190505b600254811161074e573373ffffffffffffffffffffffffffffffffffffffff166001600083815260200190815260200160002060010160009054906101000a900473ffffffffffffffffffffffffffffffffffffffff1673ffffffffffffffffffffffffffffffffffffffff160361073b5760016000828152602001908152602001600020600001548383815181106107205761071f6112b6565b5b602002602001018181525050818061073790611314565b9250505b808061074690611314565b915050610684565b506107598282610aa8565b9250505090565b600083905060008151116107a9576040517f08c379a00000000000000000000000000000000000000000000000000000000081526004016107a0906116a7565b60405180910390fd5b600083905060008151116107f2576040517f08c379a00000000000000000000000000000000000000000000000000000000081526004016107e990611713565b60405180910390fd5b6002600081548092919061080590611314565b91905055506040518060a0016040528060025481526020013373ffffffffffffffffffffffffffffffffffffffff168152602001868152602001858152602001848152506001600060025481526020019081526020016000206000820151816000015560208201518160010160006101000a81548173ffffffffffffffffffffffffffffffffffffffff021916908373ffffffffffffffffffffffffffffffffffffffff16021790555060408201518160020190816108c491906118ca565b5060608201518160030190816108da91906118ca565b50608082015181600401559050503373ffffffffffffffffffffffffffffffffffffffff166002547f435e70f0dc3155a3a315273a7ef18006eabafe620cee176dc37c4e015142df96878660405161093392919061199c565b60405180910390a35050505050565b60016020528060005260406000206000915090508060000154908060010160009054906101000a900473ffffffffffffffffffffffffffffffffffffffff169080600201805461099190611561565b80601f01602080910402602001604051908101604052809291908181526020018280546109bd90611561565b8015610a0a5780601f106109df57610100808354040283529160200191610a0a565b820191906000526020600020905b8154815290600101906020018083116109ed57829003601f168201915b505050505090806003018054610a1f90611561565b80601f0160208091040260200160405190810160405280929190818152602001828054610a4b90611561565b8015610a985780601f10610a6d57610100808354040283529160200191610a98565b820191906000526020600020905b815481529060010190602001808311610a7b57829003601f168201915b5050505050908060040154905085565b606060008267ffffffffffffffff811115610ac657610ac5611046565b5b604051908082528060200260200182016040528015610aff57816020015b610aec610d15565b815260200190600190039081610ae45790505b50905060005b83811015610d0a57600060016000878481518110610b2657610b256112b6565b5b602002602001015181526020019081526020016000206040518060a0016040529081600082015481526020016001820160009054906101000a900473ffffffffffffffffffffffffffffffffffffffff1673ffffffffffffffffffffffffffffffffffffffff1673ffffffffffffffffffffffffffffffffffffffff168152602001600282018054610bb790611561565b80601f0160208091040260200160405190810160405280929190818152602001828054610be390611561565b8015610c305780601f10610c0557610100808354040283529160200191610c30565b820191906000526020600020905b815481529060010190602001808311610c1357829003601f168201915b50505050508152602001600382018054610c4990611561565b80601f0160208091040260200160405190810160405280929190818152602001828054610c7590611561565b8015610cc25780601f10610c9757610100808354040283529160200191610cc2565b820191906000526020600020905b815481529060010190602001808311610ca557829003601f168201915b50505050508152602001600482015481525050905080838381518110610ceb57610cea6112b6565b5b6020026020010181905250508080610d0290611314565b915050610b05565b508091505092915050565b6040518060a0016040528060008152602001600073ffffffffffffffffffffffffffffffffffffffff1681526020016060815260200160608152602001600081525090565b600081519050919050565b600082825260208201905092915050565b6000819050602082019050919050565b6000819050919050565b610d9981610d86565b82525050565b600073ffffffffffffffffffffffffffffffffffffffff82169050919050565b6000610dca82610d9f565b9050919050565b610dda81610dbf565b82525050565b600081519050919050565b600082825260208201905092915050565b60005b83811015610e1a578082015181840152602081019050610dff565b60008484015250505050565b6000601f19601f8301169050919050565b6000610e4282610de0565b610e4c8185610deb565b9350610e5c818560208601610dfc565b610e6581610e26565b840191505092915050565b600060a083016000830151610e886000860182610d90565b506020830151610e9b6020860182610dd1565b5060408301518482036040860152610eb38282610e37565b91505060608301518482036060860152610ecd8282610e37565b9150506080830151610ee26080860182610d90565b508091505092915050565b6000610ef98383610e70565b905092915050565b6000602082019050919050565b6000610f1982610d5a565b610f238185610d65565b935083602082028501610f3585610d76565b8060005b85811015610f715784840389528151610f528582610eed565b9450610f5d83610f01565b925060208a01995050600181019050610f39565b50829750879550505050505092915050565b60006020820190508181036000830152610f9d8184610f0e565b905092915050565b6000604051905090565b600080fd5b600080fd5b610fc281610d86565b8114610fcd57600080fd5b50565b600081359050610fdf81610fb9565b92915050565b600060208284031215610ffb57610ffa610faf565b5b600061100984828501610fd0565b91505092915050565b61101b81610d86565b82525050565b60006020820190506110366000830184611012565b92915050565b600080fd5b600080fd5b7f4e487b7100000000000000000000000000000000000000000000000000000000600052604160045260246000fd5b61107e82610e26565b810181811067ffffffffffffffff8211171561109d5761109c611046565b5b80604052505050565b60006110b0610fa5565b90506110bc8282611075565b919050565b600067ffffffffffffffff8211156110dc576110db611046565b5b6110e582610e26565b9050602081019050919050565b82818337600083830152505050565b600061111461110f846110c1565b6110a6565b9050828152602081018484840111156111305761112f611041565b5b61113b8482856110f2565b509392505050565b600082601f8301126111585761115761103c565b5b8135611168848260208601611101565b91505092915050565b60008060006060848603121561118a57611189610faf565b5b600084013567ffffffffffffffff8111156111a8576111a7610fb4565b5b6111b486828701611143565b935050602084013567ffffffffffffffff8111156111d5576111d4610fb4565b5b6111e186828701611143565b92505060406111f286828701610fd0565b9150509250925092565b61120581610dbf565b82525050565b600082825260208201905092915050565b600061122782610de0565b611231818561120b565b9350611241818560208601610dfc565b61124a81610e26565b840191505092915050565b600060a08201905061126a6000830188611012565b61127760208301876111fc565b8181036040830152611289818661121c565b9050818103606083015261129d818561121c565b90506112ac6080830184611012565b9695505050505050565b7f4e487b7100000000000000000000000000000000000000000000000000000000600052603260045260246000fd5b7f4e487b7100000000000000000000000000000000000000000000000000000000600052601160045260246000fd5b600061131f82610d86565b91507fffffffffffffffffffffffffffffffffffffffffffffffffffffffffffffffff8203611351576113506112e5565b5b600182019050919050565b7f4e6f2061727469636c657320746f206275790000000000000000000000000000600082015250565b600061139260128361120b565b915061139d8261135c565b602082019050919050565b600060208201905081810360008301526113c181611385565b9050919050565b7f41727469636c6520646f65736e27742065786973740000000000000000000000600082015250565b60006113fe60158361120b565b9150611409826113c8565b602082019050919050565b6000602082019050818103600083015261142d816113f1565b9050919050565b7f53656c6c65722063616e6e6f742062757920686973206f776e2061727469636c60008201527f6500000000000000000000000000000000000000000000000000000000000000602082015250565b600061149060218361120b565b915061149b82611434565b604082019050919050565b600060208201905081810360008301526114bf81611483565b9050919050565b7f507269636520646f65736e2774206d6174636800000000000000000000000000600082015250565b60006114fc60138361120b565b9150611507826114c6565b602082019050919050565b6000602082019050818103600083015261152b816114ef565b9050919050565b7f4e487b7100000000000000000000000000000000000000000000000000000000600052602260045260246000fd5b6000600282049050600182168061157957607f821691505b60208210810361158c5761158b611532565b5b50919050565b60008190508160005260206000209050919050565b600081546115b481611561565b6115be818661120b565b945060018216600081146115d957600181146115ef57611622565b60ff198316865281151560200286019350611622565b6115f885611592565b60005b8381101561161a578154818901526001820191506020810190506115fb565b808801955050505b50505092915050565b6000604082019050818103600083015261164581856115a7565b90506116546020830184611012565b9392505050565b7f41206e616d652069732072657175697265640000000000000000000000000000600082015250565b600061169160128361120b565b915061169c8261165b565b602082019050919050565b600060208201905081810360008301526116c081611684565b9050919050565b7f41206465736372697074696f6e20697320726571756972656400000000000000600082015250565b60006116fd60198361120b565b9150611708826116c7565b602082019050919050565b6000602082019050818103600083015261172c816116f0565b9050919050565b60006020601f8301049050919050565b600082821b905092915050565b6000600883026117807fffffffffffffffffffffffffffffffffffffffffffffffffffffffffffffffff82611743565b61178a8683611743565b95508019841693508086168417925050509392505050565b6000819050919050565b60006117c76117c26117bd84610d86565b6117a2565b610d86565b9050919050565b6000819050919050565b6117e1836117ac565b6117f56117ed826117ce565b848454611750565b825550505050565b600090565b61180a6117fd565b6118158184846117d8565b505050565b5b818110156118395761182e600082611802565b60018101905061181b565b5050565b601f82111561187e5761184f81611592565b61185884611733565b81016020851015611867578190505b61187b61187385611733565b83018261181a565b50505b505050565b600082821c905092915050565b60006118a160001984600802611883565b1980831691505092915050565b60006118ba8383611890565b9150826002028217905092915050565b6118d382610de0565b67ffffffffffffffff8111156118ec576118eb611046565b5b6118f68254611561565b61190182828561183d565b600060209050601f8311600181146119345760008415611922578287015190505b61192c85826118ae565b865550611994565b601f19841661194286611592565b60005b8281101561196a57848901518255600182019150602085019450602081019050611945565b868310156119875784890151611983601f891682611890565b8355505b6001600288020188555050505b505050505050565b600060408201905081810360008301526119b6818561121c565b90506119c56020830184611012565b939250505056fea26469706673582212202326a16991dbde18c4d5b82beae7b8bb5e0603cb05cef9bfa4ea03fd0899132e64736f6c63430008110033",
  "linkReferences": {},
  "deployedLinkReferences": {}
}